:020000040000FA
:02000000642A70
:040002000034003492
:08000800FE000308FF007F0861
:100010008300FE0E7E0E0900820714341E3428343D
:10002000323432343C343C3446340F3419342334C3
:100030002D343734373437344134123413341634D2
:10004000173418341A341B341C341D341F34203434
:1000500021342234243425342634273429342A34D4
:100060002B342C342E342F34303431341034333498
:10007000113434344434353443341534453436344F
:100080003834383440343934393442343A343A34F8
:100090003F343B343B343D343E34A115230807390B
:1000A0004602031CA11121088600A20B5528A30BB0
:1000B0004D281E30A3000800A400A115240807390C
:1000C0004602031CA11121088600A20B6528A40B7F
:1000D0005D280800A400A20B6B28A40B6B28080065
:1000E0000830A400273084000A308000840AA40B62
:1000F00075280800F100F32072080F39A700720E6E
:100100000F39A80008008030CF000230D000F03056
:10011000BF054D2005199C288519AB28CF0B8728D2
:10012000D00B87283F140800F030BF054D2005197B
:100130009C288519AB2894282830A400051DA828E0
:100140004D20A40B9E280519A3284D20BF1408009C
:100150004D203F1408008519AB284D203F1508009D
:100160004D2094203F1908003F18C8284708720204
:100170000319C5280F307205031DC3280930F20783
:100180001030F202DA28F203DA284808F200DA28FE
:10019000480872020318D728F20A0F3072050A3C89
:1001A000031DDA28F030F2051030F207DA2847088C
:1001B000F200DA287C202722B028211621152108F8
:1001C000860021112108860008002112211521082E
:1001D000860021112108860008003F3044074407AB
:1001E000C4074408080083122008FC39A0008500D9
:1001F0008316851405148510D030422174186429A3
:100200007108422174186429051000008514051432
:100210008510D130422174186429322172080510EA
:10022000000085100514851483120800831220082D
:10023000FC39A00085008316851405148510D03084
:1002400042217418642971084221741864297208C3
:1002500042217418642905100000851005148514C6
:1002600083120800F2010830F000F20D05100000C2
:1002700005148312851C3E29831672148316F00B15
:1002800035290800F3000830F000F30CF30D0510D9
:100290000000F31B4D2985104E2985140514F00B21
:1002A0004629051085140000000000000514F00127
:1002B0008316F00A031962298312851858298316B8
:1002C0007410080074140800831270200630A9000E
:1002D000A800A700A501A6012722A115A1142108A5
:1002E0008600712908000A30AD00AC01A901A50102
:1002F000A60126170330C600AE01F412F41301085C
:10030000C400ED20FC390319F417F0390319F41671
:10031000ED2007390C20B600F41AB60AB5013430C6
:100320008400ED203F390C20800084032E3004022D
:10033000031D91299C2108003F1236080319A829A2
:10034000B6033F16AE0A0A302E020318AE01AB29DF
:100350000A30F41BAE003430840000080319BB29B6
:1003600080033F1608308402800A0A300002031816
:1003700080010830840784032E300402031DAD2958
:100380003F1EC62927221E305C209C29C821080058
:100390000730C600C8305C200630C60032305C2012
:1003A0000530C60028305C200430C6001E305C20BA
:1003B0000330C60008000108C40036308400ED2078
:1003C0003F390C20800084032E300402031DDF29F6
:1003D000B501EB2108003F123630840000080319F4
:1003E0000A2A80030008031D002A08308407000839
:1003F000C5001030840245088000083084070A2AAE
:100400003F1608308402800A0A3000020318800177
:100410000830840784032E300402031DEE293F1E9A
:10042000152A27221E305C20EB292722C82108002C
:10043000273084000008C50010308407450880007C
:100440000F3084022F300402031D1A2A08002508E9
:10045000C2002608C3002E308400C20D0318322AC1
:10046000E520332ADD200930C100C001C00A400860
:10047000000203193D2AE5203E2ADD20C10B362A61
:1004800000080319452AE520462ADD20C30D03187C
:100490004B2AE5204C2ADD208403BF1E582AA116D2
:1004A00021088600A112A1152108860050305C2089
:1004B00026300402031D2D2AA11621088600A11250
:1004C000A1152108860008008501A00107309F00C2
:1004D0008601A101031383162F30850000308600AA
:1004E000DF3081007B309B001C141A08F9007C303F
:1004F0009B001C141A08F8007D309B001C141A087D
:10050000F6007E309B001C141A08F5007F309B001B
:100510001C141A088312BF01C5004518BF177808BC
:10052000CC00A2011E30A3002110A111A110A11224
:10053000211121088600F401F101F320F21BAF2AFA
:100540000F30F100F320F21FCD2A72101621721421
:1005500016210000F3207218CD2AF2011621F101B4
:10056000F2011621F10A3030F2001621F10A1230A0
:10057000F2001621F10AF10A2830F2001621F10AE0
:100580000730F2001621F10A1030F2001621F201B4
:100590001430F1001621F10A16210230F100F32087
:1005A000CD001430F100F320CA00F10AF320CB0093
:1005B000A501A60170202722A115A11421088600FB
:1005C000662BA115A1142108860073210330C600F3
:1005D000F41383203F18EF2ABF18F12A662B7C21E1
:1005E000E62AF7010030AE000A30AD000330AC005F
:1005F0000330AB000730AA000130A9000830A80082
:100600000730A700272283203F18092BBF18232B70
:10061000662B0830F00036308400831677089B0084
:100620001C141A0883128000F70A8403F00B0D2BA8
:10063000783077020319F4179C2178307702031D74
:10064000032B8328662B70202E30F7007708840058
:10065000800127227708840094203F18562BBF186A
:100660005C2BF7032630770203193C2B2D307702E1
:100670000319F703262B27220830F0000830A106C3
:10068000210886000A30C5006A20C50B442BF00BF8
:100690003E2B182283203F184E2B662B4030F40649
:1006A000741F542B7C214A2BDB214A2B800A0B30F0
:1006B000000203198001292B00080319612B800314
:1006C000292B0A308000292B732183207508C6004E
:1006D0000A30A900AC00BF124D20F101F3200F3900
:1006E0002702031D882B4D200519792B85197F2B97
:1006F0006B2BA11C822B0519792B4D20E12AA11C03
:10070000822B222CA114210886000519852B662B2B
:1007100072080F39A700720E0F39A8007208303C1A
:100720000319982B7208F10A593C0319B02BBE2B00
:100730002830F000A901AC01AE01A501A6012730C7
:100740008400800A0A30000203188001840A2F30D6
:100750000402031DA12B27224D20F00B9F2B222CDE
:10076000F3207208243C0319642B7208473C0319D8
:10077000642B7020BF1627224D20BE2BF320720859
:100780000F39AA00720E0F39AB00F10AF3200F39AE
:10079000AD00720E0F39AE00BF1FEF2B2D082E18C3
:1007A0000A3EAE18143EC0003F130B3C0318DB2B6F
:1007B0003F170C30C00240080319EB2B0A304002EF
:1007C000031CE62BAD000130AE00EF2B4008AD005E
:1007D0000A30AE00EF2B0130AE000230AD00A501B3
:1007E000A6012430271CF62BA600F72BA5004D08E8
:1007F000720203191F2C7208CD004A02031D032C3C
:10080000A1102108860072084B02031D0A2CA114B6
:100810002108860078080319182CCC0B182CCC0062
:10082000F101F320721C112C02307918F20116210B
:1008300018220230B700DB217508C6001F2C2722C2
:100840004D206B2B0430F100F3200F39AA00720EFB
:100850000F39AB00F10AF3200F39AD00720E0F39DA
:10086000AE00F10A7B200A30A900AC00A501A60168
:10087000761C462C2E08C0002D08C1002B08AE00A7
:100880002A08AD004008AB004108AA008519462C93
:1008900027224D207830A4008519542C0519512D9C
:1008A0004D20A40B4C2C6B2B702025150130AA0079
:1008B0000030A8000630A700272285195D2C4D20A6
:1008C000A50170200030AE000130AD0002307A206A
:1008D0002722C7012330C800B02016210230AD0006
:1008E00001307A2027227208C900C7015930C80098
:1008F000B020490872020319812C1621F101F2017E
:1009000016210330AD001230BF1F2430F2007C20CE
:10091000272294203F198F2C8030BF06832C013072
:10092000BF1F030183169A007F309B001C155530B2
:100930009D00AA309D009C1483120430AD00043049
:100940007A2027220130C7003130C800B02016219C
:100950000530AD0005307A2027220130C700123063
:10096000C800B02016210630AD0006307A202722BC
:100970000030C7009930C800B02016210730AD0004
:100980000301A8007608A700F20027220030C70064
:100990000130C800B0207208F60083169A007D303E
:1009A0009B001C1555309D00AA309D009C1483129D
:1009B0000830AD0014307A202722C7012330C80048
:1009C000B02016217208CA000930AD0015307A2017
:1009D0002722C7012330C800B02016217208CB009F
:1009E0000130AE00AD017808C9007808A700A80161
:1009F000A9010A302702031C002DA700A80AF92C20
:100A00000A302802031C072DA800A90AF92CA50109
:100A1000A60179180E2D0830A500A60027224D202A
:100A200094203F19322D3F18252D791C1F2D780851
:100A300003191C2DF803F52CF901F80AF52CF80A16
:100A4000031DF52C7914F803F52C791C2D2DF80ACB
:100A5000031DF52CF803F901F52CF803031DF52C03
:100A60007914F52CA501A601490878020319512D26
:100A70007808CC0083169A007C309B001C155530FA
:100A80009D00AA309D009C149C18442D79089A0062
:100A90007B309B001C1555309D00AA309D009C1496
:100AA00083120519512D4D2070200130AE00013008
:100AB000AD007508A7002708C600272294203F191B
:100AC0006B2D3F18672D2708031DA7035B2DA70A71
:100AD0000730A7055B2D2708F50083169A007E30A6
:100AE0009B001C1555309D00AA309D009C1483125C
:020AF000662B73
:02400E00103F61
:1042000032000000150011003E004500230036007A
:104210004700000011002B003D0018002700370068
:104220003B00000022001800330038002800440042
:1042300032000000320014001E0028001D003D0066
:104240002800000028000F00340020001200400069
:10425000320000003100170035001B00290040002B
:104260002800000028000F003500370016001B0052
:1042700032000000270017001C0039004200250012
:104280003C0000001F00110016003F003700220014
:104290003C000000320023001100190026003F00FE
:1042A0003C000000150025001100220031003F00F5
:1042B0003C0000001E003700120011002C004500D9
:1042C0004700000010001A003100200024003100D7
:1042D0003C000000590079009400B700D100F100C3
:1042E0001D0000003E0021001100260037003F00A5
:1042F00000000000000001000000000005000100B7
:00000001FF
